:100000000C9465000C9482000C9482000C94820085
:100010000C9482000C9482000C9482000C94820058
:100020000C9482000C9482000C9482000C94820048
:100030000C9482000C9482000C9482000C94820038
:100040000C9482000C9482000C9482000C94820028
:100050000C9482000C9482000C9482000C94820018
:100060000C9482000C9482000C9482000C94820008
:100070000C9482000C9482000C9482000C948200F8
:100080000C9482000C9482000C9482000C948200E8
:100090000C9482000C9482000C9482000C948200D8
:1000A0000C9482000C9482000C94820005A84CCD24
:1000B000B2D44EB93836A9020C50B9918688083CA2
:1000C000A6AAAA2ABE000000803F11241FBECFEFBF
:1000D000DFE2DEBFCDBF10E2A0E0B0E2E4E4F8E092
:1000E00002C005900D92A230B107D9F710E2A2E04C
:1000F000B0E201C01D92AA3CB107E1F70E9457018E
:100100000C9420040C9400008F929F92AF92BF92A7
:10011000CF92DF92EF92FF920F931F93CF93DF93D3
:100120008C01C0E0D0E06C01EE24D7FCE094FE2C02
:10013000C017D1070CF040C0C701B6010E948C0265
:100140009B01AC0160E070E080E090E40E94F1016E
:100150004B015C01BE01882777FD8095982F0E9496
:100160008C029B01AC01C501B4010E9418032BED68
:100170003FE049E450E40E9418030E947B0320E022
:1001800030E040E05FE30E94180320E030E040E010
:100190005FE30E948D0120E030EF4FE755E40E94BD
:1001A00018030E945902FE01EE0FFF1FEE5FFF4D84
:1001B000608371832196BCCFDF91CF911F910F9106
:1001C000FF90EF90DF90CF90BF90AF909F908F9077
:1001D0000895CF92DF92EF92FF920F931F93CF93E8
:1001E000DF938C01D62FC72F69017A0180ED8093B0
:1001F000810183E080934009862F972F97FD019618
:100200009C0135952795442737FD4095542F60E094
:1002100072E18AE790E00E94FE03CA01B901A701DA
:1002200096010E94FE03209366093093670985E0DA
:100230008093000381E08093010398E09093020390
:100240008093030380E58093040380E98093000199
:1002500089ED8093120185E180931401D0931601FA
:10026000C0931701009318011093190188E180933E
:100270001C0183E080931D0185EA80931001DF91CA
:10028000CF911F910F91FF90EF90DF90CF90089545
:1002900088ED84BF82E0809350008091510081FFFF
:1002A000FCCF88ED84BF81E08093400008950E94D8
:1002B0004801109241008091B400827F8160809358
:1002C000B40080E88093410684E080930008809326
:1002D0000106809104068B7F8093040680910020A4
:1002E000909101200E948400609100207091012073
:1002F000660F771F20E137E240E050E082E090E2B5
:100300000E94E9002FEF83EC99E02150804090405B
:10031000E1F700C00000F6CF5058BB27AA270ED047
:100320004DC13ED130F043D120F031F49F3F11F464
:100330001EF433C10EF4E095E7FB29C1E92F4FD13C
:1003400080F3BA17620773078407950718F071F4F2
:100350009EF567C10EF4E0950B2EBA2FA02D0B0170
:10036000B90190010C01CA01A0011124FF27591BFA
:1003700099F0593F50F4503E68F11A16F040A22F00
:10038000232F342F4427585FF3CF46953795279571
:10039000A795F0405395C9F77EF41F16BA0B620B70
:1003A000730B840BBAF09150A1F0FF0FBB1F661FB7
:1003B000771F881FC2F70EC0BA0F621F731F841FFA
:1003C00048F4879577956795B795F7959E3F08F020
:1003D000B3CF9395880F08F09927EE0F97958795DF
:1003E00008950CD0EBC0E3D040F0DAD030F021F427
:1003F0005F3F19F0CCC0511115C1CFC0F0D098F3B8
:100400009923C9F35523B1F3951B550BBB27AA2795
:1004100062177307840738F09F5F5F4F220F331F07
:10042000441FAA1FA9F333D00E2E3AF0E0E830D0D3
:1004300091505040E695001CCAF729D0FE2F27D0D6
:10044000660F771F881FBB1F261737074807AB07A4
:10045000B0E809F0BB0B802DBF01FF2793585F4F19
:100460002AF09E3F510568F092C0DCC05F3FECF37C
:10047000983EDCF3869577956795B795F7959F5FDE
:10048000C9F7880F911D9695879597F90895E1E032
:10049000660F771F881FBB1F621773078407BA0791
:1004A00020F0621B730B840BBA0BEE1F88F7E095EC
:1004B000089504D06894B111B5C0089598D088F01B
:1004C0009F5790F0B92F9927B751A0F0D1F0660F40
:1004D000771F881F991F1AF0BA95C9F712C0B1305B
:1004E00081F09FD0B1E008959CC0672F782F8827B6
:1004F000B85F39F0B93FCCF3869577956795B3959A
:10050000D9F73EF490958095709561957F4F8F4F08
:100510009F4F0895E89409C097FB3EF4909580950D
:10052000709561957F4F8F4F9F4F9923A9F0F92FB9
:1005300096E9BB279395F695879577956795B79537
:10054000F111F8CFFAF4BB0F11F460FF1BC06F5F1D
:100550007F4F8F4F9F4F16C0882311F096E911C02F
:10056000772321F09EE8872F762F05C0662371F050
:1005700096E8862F70E060E02AF09A95660F771F64
:10058000881FDAF7880F9695879597F9089597F958
:100590009F6780E870E060E008959FEF80EC089529
:1005A00000240A9416161706180609060895002452
:1005B0000A9412161306140605060895092E0394CC
:1005C000000C11F4882352F0BB0F40F4BF2B11F440
:1005D00060FF04C06F5F7F4F8F4F9F4F089557FD9F
:1005E0009058440F551F59F05F3F71F04795880FA1
:1005F00097FB991F61F09F3F79F087950895121638
:1006000013061406551FF2CF4695F1DF08C01616E3
:1006100017061806991FF1CF869571056105089494
:100620000895E894BB2766277727CB0197F90895AB
:100630000BD0C4CFB5DF28F0BADF18F0952309F04E
:10064000A6CFABCF1124EECFCADFA0F3959FD1F395
:10065000950F50E0551F629FF001729FBB27F00D70
:10066000B11D639FAA27F00DB11DAA1F649F6627C5
:10067000B00DA11D661F829F2227B00DA11D621F14
:10068000739FB00DA11D621F839FA00D611D221FCE
:10069000749F3327A00D611D231F849F600D211DB2
:1006A000822F762F6A2F11249F5750408AF0E1F055
:1006B00088234AF0EE0FFF1FBB1F661F771F881F9E
:1006C00091505040A9F79E3F510570F060CFAACFDE
:1006D0005F3FECF3983EDCF3869577956795B79589
:1006E000F795E7959F5FC1F7FE2B880F911D9695B3
:1006F000879597F908959F9305D00F9007FCEE5FBB
:1007000028C04BCF74DFE8F3E894E0E0BB279F57A5
:10071000F0F02AED3FE049EC06C0EE0FBB0F661F7C
:10072000771F881F28F0B23A62077307840728F002
:10073000B25A620B730B840BE3959A9572F780386B
:1007400030F49A95BB0F661F771F881FD2F7904829
:1007500013C0EF93E0FF06C0A2EA2AED3FE049ECA8
:100760005FEBECDD2BDF0F90039401FC9058ECEA7B
:10077000F0E00EC09F3F31F0915020F487957795BF
:100780006795B795880F911D9695879597F9089568
:100790009F938F937F936F93FF93EF939B01AC0194
:1007A00047DFEF91FF9105D02F913F914F915F91DE
:1007B0003FCFDF93CF931F930F93FF92EF92DF9280
:1007C0007B018C01689405C0DA2EEF013DDFFE014C
:1007D000E894A5912591359145915591AEF3EF019E
:1007E000ADDDFE019701A801DA9479F7DF90EF9073
:1007F000FF900F911F91CF91DF910895A1E21A2EE2
:10080000AA1BBB1BFD010DC0AA1FBB1FEE1FFF1FB4
:10081000A217B307E407F50720F0A21BB30BE40B04
:10082000F50B661F771F881F991F1A9469F760954B
:100830007095809590959B01AC01BD01CF01089505
:04084000F894FFCF5A
:02084400320080
:00000001FF
